{
  "contracts/RockPaperScissors.sol": {
    "RPS": {
      "abi": [
        {
          "inputs": [
            {
              "internalType": "address",
              "name": "player1",
              "type": "address"
            },
            {
              "internalType": "address",
              "name": "player2",
              "type": "address"
            }
          ],
          "name": "Play",
          "outputs": [
            {
              "internalType": "string",
              "name": "",
              "type": "string"
            }
          ],
          "stateMutability": "nonpayable",
          "type": "function"
        },
        {
          "inputs": [],
          "name": "gameCount",
          "outputs": [
            {
              "internalType": "uint256",
              "name": "",
              "type": "uint256"
            }
          ],
          "stateMutability": "view",
          "type": "function"
        },
        {
          "inputs": [
            {
              "internalType": "uint256",
              "name": "",
              "type": "uint256"
            }
          ],
          "name": "games",
          "outputs": [
            {
              "internalType": "address",
              "name": "p1",
              "type": "address"
            },
            {
              "internalType": "address",
              "name": "p2",
              "type": "address"
            },
            {
              "internalType": "string",
              "name": "result",
              "type": "string"
            }
          ],
          "stateMutability": "view",
          "type": "function"
        },
        {
          "inputs": [
            {
              "internalType": "address",
              "name": "account",
              "type": "address"
            }
          ],
          "name": "toString",
          "outputs": [
            {
              "internalType": "string",
              "name": "",
              "type": "string"
            }
          ],
          "stateMutability": "pure",
          "type": "function"
        },
        {
          "inputs": [
            {
              "internalType": "bytes",
              "name": "data",
              "type": "bytes"
            }
          ],
          "name": "toString",
          "outputs": [
            {
              "internalType": "string",
              "name": "",
              "type": "string"
            }
          ],
          "stateMutability": "pure",
          "type": "function"
        }
      ],
      "evm": {
        "bytecode": {
          "linkReferences": {},
          "object": "608060405234801561001057600080fd5b506113c7806100206000396000f3fe608060405234801561001057600080fd5b50600436106100575760003560e01c8063117a5b901461005c5780634d1975b41461008e57806356ca623e146100ac57806371aad10d146100dc578063907b6ba31461010c575b600080fd5b61007660048036038101906100719190610c83565b61013c565b60405161008593929190610eb4565b60405180910390f35b61009661022e565b6040516100a39190610f14565b60405180910390f35b6100c660048036038101906100c19190610bdd565b610234565b6040516100d39190610ef2565b60405180910390f35b6100f660048036038101906100f19190610c42565b610265565b6040516101039190610ef2565b60405180910390f35b61012660048036038101906101219190610c06565b6106b5565b6040516101339190610ef2565b60405180910390f35b60016020528060005260406000206000915090508060000160009054906101000a900473ffffffffffffffffffffffffffffffffffffffff16908060010160009054906101000a900473ffffffffffffffffffffffffffffffffffffffff16908060020180546101ab906110da565b80601f01602080910402602001604051908101604052809291908181526020018280546101d7906110da565b80156102245780601f106101f957610100808354040283529160200191610224565b820191906000526020600020905b81548152906001019060200180831161020757829003601f168201915b5050505050905083565b60005481565b606061025e8260405160200161024a9190610dee565b604051602081830303815290604052610265565b9050919050565b606060006040518060400160405280601081526020017f303132333435363738396162636465660000000000000000000000000000000081525090506000600284516102b19190611002565b60026102bd9190610fac565b67ffffffffffffffff8111156102fc577f4e487b7100000000000000000000000000000000000000000000000000000000600052604160045260246000fd5b6040519080825280601f01601f19166020018201604052801561032e5781602001600182028036833780820191505090505b5090507f30000000000000000000000000000000000000000000000000000000000000008160008151811061038c577f4e487b7100000000000000000000000000000000000000000000000000000000600052603260045260246000fd5b60200101907effffffffffffffffffffffffffffffffffffffffffffffffffffffffffffff1916908160001a9053507f780000000000000000000000000000000000000000000000000000000000000081600181518110610416577f4e487b7100000000000000000000000000000000000000000000000000000000600052603260045260246000fd5b60200101907effffffffffffffffffffffffffffffffffffffffffffffffffffffffffffff1916908160001a90535060005b84518110156106aa5782600486838151811061048d577f4e487b7100000000000000000000000000000000000000000000000000000000600052603260045260246000fd5b602001015160f81c60f81b7effffffffffffffffffffffffffffffffffffffffffffffffffffffffffffff1916901c60f81c60ff16815181106104f9577f4e487b7100000000000000000000000000000000000000000000000000000000600052603260045260246000fd5b602001015160f81c60f81b826002836105129190611002565b600261051e9190610fac565b81518110610555577f4e487b7100000000000000000000000000000000000000000000000000000000600052603260045260246000fd5b60200101907effffffffffffffffffffffffffffffffffffffffffffffffffffffffffffff1916908160001a90535082600f60f81b8683815181106105c3577f4e487b7100000000000000000000000000000000000000000000000000000000600052603260045260246000fd5b602001015160f81c60f81b1660f81c60ff168151811061060c577f4e487b7100000000000000000000000000000000000000000000000000000000600052603260045260246000fd5b602001015160f81c60f81b826002836106259190611002565b60036106319190610fac565b81518110610668577f4e487b7100000000000000000000000000000000000000000000000000000000600052603260045260246000fd5b60200101907effffffffffffffffffffffffffffffffffffffffffffffffffffffffffffff1916908160001a90535080806106a29061113d565b915050610448565b508092505050919050565b60606106bf610a5b565b83816000019073ffffffffffffffffffffffffffffffffffffffff16908173ffffffffffffffffffffffffffffffffffffffff168152505082816020019073ffffffffffffffffffffffffffffffffffffffff16908173ffffffffffffffffffffffffffffffffffffffff16815250506000600360005486444260405160200161074c9493929190610e66565b6040516020818303038152906040528051906020012060001c61076f91906111b4565b90506000600360005486444260405160200161078e9493929190610e66565b6040516020818303038152906040528051906020012060001c6107b191906111b4565b90506000821480156107c35750600281145b806107da57506001821480156107d95750600081145b5b806107f157506002821480156107f05750600181145b5b15610835576040518060400160405280600d81526020017f506c6179657220312057696e730000000000000000000000000000000000000081525083604001819052505b6000811480156108455750600282145b8061085c575060018114801561085b5750600082145b5b8061087357506002811480156108725750600182145b5b156108b7576040518060400160405280600d81526020017f506c6179657220322057696e730000000000000000000000000000000000000081525083604001819052505b6000811480156108c75750600082145b806108de57506001811480156108dd5750600182145b5b806108f557506002811480156108f45750600282145b5b15610939576040518060400160405280600481526020017f447261770000000000000000000000000000000000000000000000000000000081525083604001819052505b82600160008060008154809291906109509061113d565b91905055815260200190815260200160002060008201518160000160006101000a81548173ffffffffffffffffffffffffffffffffffffffff021916908373ffffffffffffffffffffffffffffffffffffffff16021790555060208201518160010160006101000a81548173ffffffffffffffffffffffffffffffffffffffff021916908373ffffffffffffffffffffffffffffffffffffffff1602179055506040820151816002019080519060200190610a0c929190610aa8565b50905050610a1d8360000151610234565b610a2a8460200151610234565b8460400151604051602001610a4193929190610e09565b604051602081830303815290604052935050505092915050565b6040518060600160405280600073ffffffffffffffffffffffffffffffffffffffff168152602001600073ffffffffffffffffffffffffffffffffffffffff168152602001606081525090565b828054610ab4906110da565b90600052602060002090601f016020900481019282610ad65760008555610b1d565b82601f10610aef57805160ff1916838001178555610b1d565b82800160010185558215610b1d579182015b82811115610b1c578251825591602001919060010190610b01565b5b509050610b2a9190610b2e565b5090565b5b80821115610b47576000816000905550600101610b2f565b5090565b6000610b5e610b5984610f54565b610f2f565b905082815260208101848484011115610b7657600080fd5b610b81848285611098565b509392505050565b600081359050610b9881611363565b92915050565b600082601f830112610baf57600080fd5b8135610bbf848260208601610b4b565b91505092915050565b600081359050610bd78161137a565b92915050565b600060208284031215610bef57600080fd5b6000610bfd84828501610b89565b91505092915050565b60008060408385031215610c1957600080fd5b6000610c2785828601610b89565b9250506020610c3885828601610b89565b9150509250929050565b600060208284031215610c5457600080fd5b600082013567ffffffffffffffff811115610c6e57600080fd5b610c7a84828501610b9e565b91505092915050565b600060208284031215610c9557600080fd5b6000610ca384828501610bc8565b91505092915050565b610cb58161105c565b82525050565b610ccc610cc78261105c565b611186565b82525050565b6000610cdd82610f85565b610ce78185610f90565b9350610cf78185602086016110a7565b610d00816112a1565b840191505092915050565b6000610d1682610f85565b610d208185610fa1565b9350610d308185602086016110a7565b80840191505092915050565b6000610d49600c83610fa1565b9150610d54826112bf565b600c82019050919050565b6000610d6c600283610fa1565b9150610d77826112e8565b600282019050919050565b6000610d8f600d83610fa1565b9150610d9a82611311565b600d82019050919050565b6000610db2600c83610fa1565b9150610dbd8261133a565b600c82019050919050565b610dd18161108e565b82525050565b610de8610de38261108e565b6111aa565b82525050565b6000610dfa8284610cbb565b60148201915081905092915050565b6000610e1482610da5565b9150610e208286610d0b565b9150610e2b82610d82565b9150610e378285610d0b565b9150610e4282610d3c565b9150610e4e8284610d0b565b9150610e5982610d5f565b9150819050949350505050565b6000610e728287610dd7565b602082019150610e828286610cbb565b601482019150610e928285610dd7565b602082019150610ea28284610dd7565b60208201915081905095945050505050565b6000606082019050610ec96000830186610cac565b610ed66020830185610cac565b8181036040830152610ee88184610cd2565b9050949350505050565b60006020820190508181036000830152610f0c8184610cd2565b905092915050565b6000602082019050610f296000830184610dc8565b92915050565b6000610f39610f4a565b9050610f45828261110c565b919050565b6000604051905090565b600067ffffffffffffffff821115610f6f57610f6e611272565b5b610f78826112a1565b9050602081019050919050565b600081519050919050565b600082825260208201905092915050565b600081905092915050565b6000610fb78261108e565b9150610fc28361108e565b9250827fffffffffffffffffffffffffffffffffffffffffffffffffffffffffffffffff03821115610ff757610ff66111e5565b5b828201905092915050565b600061100d8261108e565b91506110188361108e565b9250817fffffffffffffffffffffffffffffffffffffffffffffffffffffffffffffffff0483118215151615611051576110506111e5565b5b828202905092915050565b60006110678261106e565b9050919050565b600073ffffffffffffffffffffffffffffffffffffffff82169050919050565b6000819050919050565b82818337600083830152505050565b60005b838110156110c55780820151818401526020810190506110aa565b838111156110d4576000848401525b50505050565b600060028204905060018216806110f257607f821691505b6020821081141561110657611105611243565b5b50919050565b611115826112a1565b810181811067ffffffffffffffff8211171561113457611133611272565b5b80604052505050565b60006111488261108e565b91507fffffffffffffffffffffffffffffffffffffffffffffffffffffffffffffffff82141561117b5761117a6111e5565b5b600182019050919050565b600061119182611198565b9050919050565b60006111a3826112b2565b9050919050565b6000819050919050565b60006111bf8261108e565b91506111ca8361108e565b9250826111da576111d9611214565b5b828206905092915050565b7f4e487b7100000000000000000000000000000000000000000000000000000000600052601160045260246000fd5b7f4e487b7100000000000000000000000000000000000000000000000000000000600052601260045260246000fd5b7f4e487b7100000000000000000000000000000000000000000000000000000000600052602260045260246000fd5b7f4e487b7100000000000000000000000000000000000000000000000000000000600052604160045260246000fd5b6000601f19601f8301169050919050565b60008160601b9050919050565b7f222c22726573756c74223a220000000000000000000000000000000000000000600082015250565b7f227d000000000000000000000000000000000000000000000000000000000000600082015250565b7f222c22706c6179657232223a2200000000000000000000000000000000000000600082015250565b7f7b22706c6179657231223a220000000000000000000000000000000000000000600082015250565b61136c8161105c565b811461137757600080fd5b50565b6113838161108e565b811461138e57600080fd5b5056fea26469706673582212203eda9f13fb13b92859ccec146599ed433af8e96869214ba2ca1d4c9e54924d6264736f6c63430008040033",
          "opcodes": "PUSH1 0x80 PUSH1 0x40 MSTORE CALLVALUE DUP1 ISZERO PUSH2 0x10 JUMPI PUSH1 0x0 DUP1 REVERT JUMPDEST POP PUSH2 0x13C7 DUP1 PUSH2 0x20 PUSH1 0x0 CODECOPY PUSH1 0x0 RETURN INVALID PUSH1 0x80 PUSH1 0x40 MSTORE CALLVALUE DUP1 ISZERO PUSH2 0x10 JUMPI PUSH1 0x0 DUP1 REVERT JUMPDEST POP PUSH1 0x4 CALLDATASIZE LT PUSH2 0x57 JUMPI PUSH1 0x0 CALLDATALOAD PUSH1 0xE0 SHR DUP1 PUSH4 0x117A5B90 EQ PUSH2 0x5C JUMPI DUP1 PUSH4 0x4D1975B4 EQ PUSH2 0x8E JUMPI DUP1 PUSH4 0x56CA623E EQ PUSH2 0xAC JUMPI DUP1 PUSH4 0x71AAD10D EQ PUSH2 0xDC JUMPI DUP1 PUSH4 0x907B6BA3 EQ PUSH2 0x10C JUMPI JUMPDEST PUSH1 0x0 DUP1 REVERT JUMPDEST PUSH2 0x76 PUSH1 0x4 DUP1 CALLDATASIZE SUB DUP2 ADD SWAP1 PUSH2 0x71 SWAP2 SWAP1 PUSH2 0xC83 JUMP JUMPDEST PUSH2 0x13C JUMP JUMPDEST PUSH1 0x40 MLOAD PUSH2 0x85 SWAP4 SWAP3 SWAP2 SWAP1 PUSH2 0xEB4 JUMP JUMPDEST PUSH1 0x40 MLOAD DUP1 SWAP2 SUB SWAP1 RETURN JUMPDEST PUSH2 0x96 PUSH2 0x22E JUMP JUMPDEST PUSH1 0x40 MLOAD PUSH2 0xA3 SWAP2 SWAP1 PUSH2 0xF14 JUMP JUMPDEST PUSH1 0x40 MLOAD DUP1 SWAP2 SUB SWAP1 RETURN JUMPDEST PUSH2 0xC6 PUSH1 0x4 DUP1 CALLDATASIZE SUB DUP2 ADD SWAP1 PUSH2 0xC1 SWAP2 SWAP1 PUSH2 0xBDD JUMP JUMPDEST PUSH2 0x234 JUMP JUMPDEST PUSH1 0x40 MLOAD PUSH2 0xD3 SWAP2 SWAP1 PUSH2 0xEF2 JUMP JUMPDEST PUSH1 0x40 MLOAD DUP1 SWAP2 SUB SWAP1 RETURN JUMPDEST PUSH2 0xF6 PUSH1 0x4 DUP1 CALLDATASIZE SUB DUP2 ADD SWAP1 PUSH2 0xF1 SWAP2 SWAP1 PUSH2 0xC42 JUMP JUMPDEST PUSH2 0x265 JUMP JUMPDEST PUSH1 0x40 MLOAD PUSH2 0x103 SWAP2 SWAP1 PUSH2 0xEF2 JUMP JUMPDEST PUSH1 0x40 MLOAD DUP1 SWAP2 SUB SWAP1 RETURN JUMPDEST PUSH2 0x126 PUSH1 0x4 DUP1 CALLDATASIZE SUB DUP2 ADD SWAP1 PUSH2 0x121 SWAP2 SWAP1 PUSH2 0xC06 JUMP JUMPDEST PUSH2 0x6B5 JUMP JUMPDEST PUSH1 0x40 MLOAD PUSH2 0x133 SWAP2 SWAP1 PUSH2 0xEF2 JUMP JUMPDEST PUSH1 0x40 MLOAD DUP1 SWAP2 SUB SWAP1 RETURN JUMPDEST PUSH1 0x1 PUSH1 0x20 MSTORE DUP1 PUSH1 0x0 MSTORE PUSH1 0x40 PUSH1 0x0 KECCAK256 PUSH1 0x0 SWAP2 POP SWAP1 POP DUP1 PUSH1 0x0 ADD PUSH1 0x0 SWAP1 SLOAD SWAP1 PUSH2 0x100 EXP SWAP1 DIV PUSH20 0xFFFFFFFFFFFFFFFFFFFFFFFFFFFFFFFFFFFFFFFF AND SWAP1 DUP1 PUSH1 0x1 ADD PUSH1 0x0 SWAP1 SLOAD SWAP1 PUSH2 0x100 EXP SWAP1 DIV PUSH20 0xFFFFFFFFFFFFFFFFFFFFFFFFFFFFFFFFFFFFFFFF AND SWAP1 DUP1 PUSH1 0x2 ADD DUP1 SLOAD PUSH2 0x1AB SWAP1 PUSH2 0x10DA JUMP JUMPDEST DUP1 PUSH1 0x1F ADD PUSH1 0x20 DUP1 SWAP2 DIV MUL PUSH1 0x20 ADD PUSH1 0x40 MLOAD SWAP1 DUP2 ADD PUSH1 0x40 MSTORE DUP1 SWAP3 SWAP2 SWAP1 DUP2 DUP2 MSTORE PUSH1 0x20 ADD DUP3 DUP1 SLOAD PUSH2 0x1D7 SWAP1 PUSH2 0x10DA JUMP JUMPDEST DUP1 ISZERO PUSH2 0x224 JUMPI DUP1 PUSH1 0x1F LT PUSH2 0x1F9 JUMPI PUSH2 0x100 DUP1 DUP4 SLOAD DIV MUL DUP4 MSTORE SWAP2 PUSH1 0x20 ADD SWAP2 PUSH2 0x224 JUMP JUMPDEST DUP3 ADD SWAP2 SWAP1 PUSH1 0x0 MSTORE PUSH1 0x20 PUSH1 0x0 KECCAK256 SWAP1 JUMPDEST DUP2 SLOAD DUP2 MSTORE SWAP1 PUSH1 0x1 ADD SWAP1 PUSH1 0x20 ADD DUP1 DUP4 GT PUSH2 0x207 JUMPI DUP3 SWAP1 SUB PUSH1 0x1F AND DUP3 ADD SWAP2 JUMPDEST POP POP POP POP POP SWAP1 POP DUP4 JUMP JUMPDEST PUSH1 0x0 SLOAD DUP2 JUMP JUMPDEST PUSH1 0x60 PUSH2 0x25E DUP3 PUSH1 0x40 MLOAD PUSH1 0x20 ADD PUSH2 0x24A SWAP2 SWAP1 PUSH2 0xDEE JUMP JUMPDEST PUSH1 0x40 MLOAD PUSH1 0x20 DUP2 DUP4 SUB SUB DUP2 MSTORE SWAP1 PUSH1 0x40 MSTORE PUSH2 0x265 JUMP JUMPDEST SWAP1 POP SWAP2 SWAP1 POP JUMP JUMPDEST PUSH1 0x60 PUSH1 0x0 PUSH1 0x40 MLOAD DUP1 PUSH1 0x40 ADD PUSH1 0x40 MSTORE DUP1 PUSH1 0x10 DUP2 MSTORE PUSH1 0x20 ADD PUSH32 0x3031323334353637383961626364656600000000000000000000000000000000 DUP2 MSTORE POP SWAP1 POP PUSH1 0x0 PUSH1 0x2 DUP5 MLOAD PUSH2 0x2B1 SWAP2 SWAP1 PUSH2 0x1002 JUMP JUMPDEST PUSH1 0x2 PUSH2 0x2BD SWAP2 SWAP1 PUSH2 0xFAC JUMP JUMPDEST PUSH8 0xFFFFFFFFFFFFFFFF DUP2 GT ISZERO PUSH2 0x2FC JUMPI PUSH32 0x4E487B7100000000000000000000000000000000000000000000000000000000 PUSH1 0x0 MSTORE PUSH1 0x41 PUSH1 0x4 MSTORE PUSH1 0x24 PUSH1 0x0 REVERT JUMPDEST PUSH1 0x40 MLOAD SWAP1 DUP1 DUP3 MSTORE DUP1 PUSH1 0x1F ADD PUSH1 0x1F NOT AND PUSH1 0x20 ADD DUP3 ADD PUSH1 0x40 MSTORE DUP1 ISZERO PUSH2 0x32E JUMPI DUP2 PUSH1 0x20 ADD PUSH1 0x1 DUP3 MUL DUP1 CALLDATASIZE DUP4 CALLDATACOPY DUP1 DUP3 ADD SWAP2 POP POP SWAP1 POP JUMPDEST POP SWAP1 POP PUSH32 0x3000000000000000000000000000000000000000000000000000000000000000 DUP2 PUSH1 0x0 DUP2 MLOAD DUP2 LT PUSH2 0x38C JUMPI PUSH32 0x4E487B7100000000000000000000000000000000000000000000000000000000 PUSH1 0x0 MSTORE PUSH1 0x32 PUSH1 0x4 MSTORE PUSH1 0x24 PUSH1 0x0 REVERT JUMPDEST PUSH1 0x20 ADD ADD SWAP1 PUSH31 0xFFFFFFFFFFFFFFFFFFFFFFFFFFFFFFFFFFFFFFFFFFFFFFFFFFFFFFFFFFFFFF NOT AND SWAP1 DUP2 PUSH1 0x0 BYTE SWAP1 MSTORE8 POP PUSH32 0x7800000000000000000000000000000000000000000000000000000000000000 DUP2 PUSH1 0x1 DUP2 MLOAD DUP2 LT PUSH2 0x416 JUMPI PUSH32 0x4E487B7100000000000000000000000000000000000000000000000000000000 PUSH1 0x0 MSTORE PUSH1 0x32 PUSH1 0x4 MSTORE PUSH1 0x24 PUSH1 0x0 REVERT JUMPDEST PUSH1 0x20 ADD ADD SWAP1 PUSH31 0xFFFFFFFFFFFFFFFFFFFFFFFFFFFFFFFFFFFFFFFFFFFFFFFFFFFFFFFFFFFFFF NOT AND SWAP1 DUP2 PUSH1 0x0 BYTE SWAP1 MSTORE8 POP PUSH1 0x0 JUMPDEST DUP5 MLOAD DUP2 LT ISZERO PUSH2 0x6AA JUMPI DUP3 PUSH1 0x4 DUP7 DUP4 DUP2 MLOAD DUP2 LT PUSH2 0x48D JUMPI PUSH32 0x4E487B7100000000000000000000000000000000000000000000000000000000 PUSH1 0x0 MSTORE PUSH1 0x32 PUSH1 0x4 MSTORE PUSH1 0x24 PUSH1 0x0 REVERT JUMPDEST PUSH1 0x20 ADD ADD MLOAD PUSH1 0xF8 SHR PUSH1 0xF8 SHL PUSH31 0xFFFFFFFFFFFFFFFFFFFFFFFFFFFFFFFFFFFFFFFFFFFFFFFFFFFFFFFFFFFFFF NOT AND SWAP1 SHR PUSH1 0xF8 SHR PUSH1 0xFF AND DUP2 MLOAD DUP2 LT PUSH2 0x4F9 JUMPI PUSH32 0x4E487B7100000000000000000000000000000000000000000000000000000000 PUSH1 0x0 MSTORE PUSH1 0x32 PUSH1 0x4 MSTORE PUSH1 0x24 PUSH1 0x0 REVERT JUMPDEST PUSH1 0x20 ADD ADD MLOAD PUSH1 0xF8 SHR PUSH1 0xF8 SHL DUP3 PUSH1 0x2 DUP4 PUSH2 0x512 SWAP2 SWAP1 PUSH2 0x1002 JUMP JUMPDEST PUSH1 0x2 PUSH2 0x51E SWAP2 SWAP1 PUSH2 0xFAC JUMP JUMPDEST DUP2 MLOAD DUP2 LT PUSH2 0x555 JUMPI PUSH32 0x4E487B7100000000000000000000000000000000000000000000000000000000 PUSH1 0x0 MSTORE PUSH1 0x32 PUSH1 0x4 MSTORE PUSH1 0x24 PUSH1 0x0 REVERT JUMPDEST PUSH1 0x20 ADD ADD SWAP1 PUSH31 0xFFFFFFFFFFFFFFFFFFFFFFFFFFFFFFFFFFFFFFFFFFFFFFFFFFFFFFFFFFFFFF NOT AND SWAP1 DUP2 PUSH1 0x0 BYTE SWAP1 MSTORE8 POP DUP3 PUSH1 0xF PUSH1 0xF8 SHL DUP7 DUP4 DUP2 MLOAD DUP2 LT PUSH2 0x5C3 JUMPI PUSH32 0x4E487B7100000000000000000000000000000000000000000000000000000000 PUSH1 0x0 MSTORE PUSH1 0x32 PUSH1 0x4 MSTORE PUSH1 0x24 PUSH1 0x0 REVERT JUMPDEST PUSH1 0x20 ADD ADD MLOAD PUSH1 0xF8 SHR PUSH1 0xF8 SHL AND PUSH1 0xF8 SHR PUSH1 0xFF AND DUP2 MLOAD DUP2 LT PUSH2 0x60C JUMPI PUSH32 0x4E487B7100000000000000000000000000000000000000000000000000000000 PUSH1 0x0 MSTORE PUSH1 0x32 PUSH1 0x4 MSTORE PUSH1 0x24 PUSH1 0x0 REVERT JUMPDEST PUSH1 0x20 ADD ADD MLOAD PUSH1 0xF8 SHR PUSH1 0xF8 SHL DUP3 PUSH1 0x2 DUP4 PUSH2 0x625 SWAP2 SWAP1 PUSH2 0x1002 JUMP JUMPDEST PUSH1 0x3 PUSH2 0x631 SWAP2 SWAP1 PUSH2 0xFAC JUMP JUMPDEST DUP2 MLOAD DUP2 LT PUSH2 0x668 JUMPI PUSH32 0x4E487B7100000000000000000000000000000000000000000000000000000000 PUSH1 0x0 MSTORE PUSH1 0x32 PUSH1 0x4 MSTORE PUSH1 0x24 PUSH1 0x0 REVERT JUMPDEST PUSH1 0x20 ADD ADD SWAP1 PUSH31 0xFFFFFFFFFFFFFFFFFFFFFFFFFFFFFFFFFFFFFFFFFFFFFFFFFFFFFFFFFFFFFF NOT AND SWAP1 DUP2 PUSH1 0x0 BYTE SWAP1 MSTORE8 POP DUP1 DUP1 PUSH2 0x6A2 SWAP1 PUSH2 0x113D JUMP JUMPDEST SWAP2 POP POP PUSH2 0x448 JUMP JUMPDEST POP DUP1 SWAP3 POP POP POP SWAP2 SWAP1 POP JUMP JUMPDEST PUSH1 0x60 PUSH2 0x6BF PUSH2 0xA5B JUMP JUMPDEST DUP4 DUP2 PUSH1 0x0 ADD SWAP1 PUSH20 0xFFFFFFFFFFFFFFFFFFFFFFFFFFFFFFFFFFFFFFFF AND SWAP1 DUP2 PUSH20 0xFFFFFFFFFFFFFFFFFFFFFFFFFFFFFFFFFFFFFFFF AND DUP2 MSTORE POP POP DUP3 DUP2 PUSH1 0x20 ADD SWAP1 PUSH20 0xFFFFFFFFFFFFFFFFFFFFFFFFFFFFFFFFFFFFFFFF AND SWAP1 DUP2 PUSH20 0xFFFFFFFFFFFFFFFFFFFFFFFFFFFFFFFFFFFFFFFF AND DUP2 MSTORE POP POP PUSH1 0x0 PUSH1 0x3 PUSH1 0x0 SLOAD DUP7 DIFFICULTY TIMESTAMP PUSH1 0x40 MLOAD PUSH1 0x20 ADD PUSH2 0x74C SWAP5 SWAP4 SWAP3 SWAP2 SWAP1 PUSH2 0xE66 JUMP JUMPDEST PUSH1 0x40 MLOAD PUSH1 0x20 DUP2 DUP4 SUB SUB DUP2 MSTORE SWAP1 PUSH1 0x40 MSTORE DUP1 MLOAD SWAP1 PUSH1 0x20 ADD KECCAK256 PUSH1 0x0 SHR PUSH2 0x76F SWAP2 SWAP1 PUSH2 0x11B4 JUMP JUMPDEST SWAP1 POP PUSH1 0x0 PUSH1 0x3 PUSH1 0x0 SLOAD DUP7 DIFFICULTY TIMESTAMP PUSH1 0x40 MLOAD PUSH1 0x20 ADD PUSH2 0x78E SWAP5 SWAP4 SWAP3 SWAP2 SWAP1 PUSH2 0xE66 JUMP JUMPDEST PUSH1 0x40 MLOAD PUSH1 0x20 DUP2 DUP4 SUB SUB DUP2 MSTORE SWAP1 PUSH1 0x40 MSTORE DUP1 MLOAD SWAP1 PUSH1 0x20 ADD KECCAK256 PUSH1 0x0 SHR PUSH2 0x7B1 SWAP2 SWAP1 PUSH2 0x11B4 JUMP JUMPDEST SWAP1 POP PUSH1 0x0 DUP3 EQ DUP1 ISZERO PUSH2 0x7C3 JUMPI POP PUSH1 0x2 DUP2 EQ JUMPDEST DUP1 PUSH2 0x7DA JUMPI POP PUSH1 0x1 DUP3 EQ DUP1 ISZERO PUSH2 0x7D9 JUMPI POP PUSH1 0x0 DUP2 EQ JUMPDEST JUMPDEST DUP1 PUSH2 0x7F1 JUMPI POP PUSH1 0x2 DUP3 EQ DUP1 ISZERO PUSH2 0x7F0 JUMPI POP PUSH1 0x1 DUP2 EQ JUMPDEST JUMPDEST ISZERO PUSH2 0x835 JUMPI PUSH1 0x40 MLOAD DUP1 PUSH1 0x40 ADD PUSH1 0x40 MSTORE DUP1 PUSH1 0xD DUP2 MSTORE PUSH1 0x20 ADD PUSH32 0x506C6179657220312057696E7300000000000000000000000000000000000000 DUP2 MSTORE POP DUP4 PUSH1 0x40 ADD DUP2 SWAP1 MSTORE POP JUMPDEST PUSH1 0x0 DUP2 EQ DUP1 ISZERO PUSH2 0x845 JUMPI POP PUSH1 0x2 DUP3 EQ JUMPDEST DUP1 PUSH2 0x85C JUMPI POP PUSH1 0x1 DUP2 EQ DUP1 ISZERO PUSH2 0x85B JUMPI POP PUSH1 0x0 DUP3 EQ JUMPDEST JUMPDEST DUP1 PUSH2 0x873 JUMPI POP PUSH1 0x2 DUP2 EQ DUP1 ISZERO PUSH2 0x872 JUMPI POP PUSH1 0x1 DUP3 EQ JUMPDEST JUMPDEST ISZERO PUSH2 0x8B7 JUMPI PUSH1 0x40 MLOAD DUP1 PUSH1 0x40 ADD PUSH1 0x40 MSTORE DUP1 PUSH1 0xD DUP2 MSTORE PUSH1 0x20 ADD PUSH32 0x506C6179657220322057696E7300000000000000000000000000000000000000 DUP2 MSTORE POP DUP4 PUSH1 0x40 ADD DUP2 SWAP1 MSTORE POP JUMPDEST PUSH1 0x0 DUP2 EQ DUP1 ISZERO PUSH2 0x8C7 JUMPI POP PUSH1 0x0 DUP3 EQ JUMPDEST DUP1 PUSH2 0x8DE JUMPI POP PUSH1 0x1 DUP2 EQ DUP1 ISZERO PUSH2 0x8DD JUMPI POP PUSH1 0x1 DUP3 EQ JUMPDEST JUMPDEST DUP1 PUSH2 0x8F5 JUMPI POP PUSH1 0x2 DUP2 EQ DUP1 ISZERO PUSH2 0x8F4 JUMPI POP PUSH1 0x2 DUP3 EQ JUMPDEST JUMPDEST ISZERO PUSH2 0x939 JUMPI PUSH1 0x40 MLOAD DUP1 PUSH1 0x40 ADD PUSH1 0x40 MSTORE DUP1 PUSH1 0x4 DUP2 MSTORE PUSH1 0x20 ADD PUSH32 0x4472617700000000000000000000000000000000000000000000000000000000 DUP2 MSTORE POP DUP4 PUSH1 0x40 ADD DUP2 SWAP1 MSTORE POP JUMPDEST DUP3 PUSH1 0x1 PUSH1 0x0 DUP1 PUSH1 0x0 DUP2 SLOAD DUP1 SWAP3 SWAP2 SWAP1 PUSH2 0x950 SWAP1 PUSH2 0x113D JUMP JUMPDEST SWAP2 SWAP1 POP SSTORE DUP2 MSTORE PUSH1 0x20 ADD SWAP1 DUP2 MSTORE PUSH1 0x20 ADD PUSH1 0x0 KECCAK256 PUSH1 0x0 DUP3 ADD MLOAD DUP2 PUSH1 0x0 ADD PUSH1 0x0 PUSH2 0x100 EXP DUP2 SLOAD DUP2 PUSH20 0xFFFFFFFFFFFFFFFFFFFFFFFFFFFFFFFFFFFFFFFF MUL NOT AND SWAP1 DUP4 PUSH20 0xFFFFFFFFFFFFFFFFFFFFFFFFFFFFFFFFFFFFFFFF AND MUL OR SWAP1 SSTORE POP PUSH1 0x20 DUP3 ADD MLOAD DUP2 PUSH1 0x1 ADD PUSH1 0x0 PUSH2 0x100 EXP DUP2 SLOAD DUP2 PUSH20 0xFFFFFFFFFFFFFFFFFFFFFFFFFFFFFFFFFFFFFFFF MUL NOT AND SWAP1 DUP4 PUSH20 0xFFFFFFFFFFFFFFFFFFFFFFFFFFFFFFFFFFFFFFFF AND MUL OR SWAP1 SSTORE POP PUSH1 0x40 DUP3 ADD MLOAD DUP2 PUSH1 0x2 ADD SWAP1 DUP1 MLOAD SWAP1 PUSH1 0x20 ADD SWAP1 PUSH2 0xA0C SWAP3 SWAP2 SWAP1 PUSH2 0xAA8 JUMP JUMPDEST POP SWAP1 POP POP PUSH2 0xA1D DUP4 PUSH1 0x0 ADD MLOAD PUSH2 0x234 JUMP JUMPDEST PUSH2 0xA2A DUP5 PUSH1 0x20 ADD MLOAD PUSH2 0x234 JUMP JUMPDEST DUP5 PUSH1 0x40 ADD MLOAD PUSH1 0x40 MLOAD PUSH1 0x20 ADD PUSH2 0xA41 SWAP4 SWAP3 SWAP2 SWAP1 PUSH2 0xE09 JUMP JUMPDEST PUSH1 0x40 MLOAD PUSH1 0x20 DUP2 DUP4 SUB SUB DUP2 MSTORE SWAP1 PUSH1 0x40 MSTORE SWAP4 POP POP POP POP SWAP3 SWAP2 POP POP JUMP JUMPDEST PUSH1 0x40 MLOAD DUP1 PUSH1 0x60 ADD PUSH1 0x40 MSTORE DUP1 PUSH1 0x0 PUSH20 0xFFFFFFFFFFFFFFFFFFFFFFFFFFFFFFFFFFFFFFFF AND DUP2 MSTORE PUSH1 0x20 ADD PUSH1 0x0 PUSH20 0xFFFFFFFFFFFFFFFFFFFFFFFFFFFFFFFFFFFFFFFF AND DUP2 MSTORE PUSH1 0x20 ADD PUSH1 0x60 DUP2 MSTORE POP SWAP1 JUMP JUMPDEST DUP3 DUP1 SLOAD PUSH2 0xAB4 SWAP1 PUSH2 0x10DA JUMP JUMPDEST SWAP1 PUSH1 0x0 MSTORE PUSH1 0x20 PUSH1 0x0 KECCAK256 SWAP1 PUSH1 0x1F ADD PUSH1 0x20 SWAP1 DIV DUP2 ADD SWAP3 DUP3 PUSH2 0xAD6 JUMPI PUSH1 0x0 DUP6 SSTORE PUSH2 0xB1D JUMP JUMPDEST DUP3 PUSH1 0x1F LT PUSH2 0xAEF JUMPI DUP1 MLOAD PUSH1 0xFF NOT AND DUP4 DUP1 ADD OR DUP6 SSTORE PUSH2 0xB1D JUMP JUMPDEST DUP3 DUP1 ADD PUSH1 0x1 ADD DUP6 SSTORE DUP3 ISZERO PUSH2 0xB1D JUMPI SWAP2 DUP3 ADD JUMPDEST DUP3 DUP2 GT ISZERO PUSH2 0xB1C JUMPI DUP3 MLOAD DUP3 SSTORE SWAP2 PUSH1 0x20 ADD SWAP2 SWAP1 PUSH1 0x1 ADD SWAP1 PUSH2 0xB01 JUMP JUMPDEST JUMPDEST POP SWAP1 POP PUSH2 0xB2A SWAP2 SWAP1 PUSH2 0xB2E JUMP JUMPDEST POP SWAP1 JUMP JUMPDEST JUMPDEST DUP1 DUP3 GT ISZERO PUSH2 0xB47 JUMPI PUSH1 0x0 DUP2 PUSH1 0x0 SWAP1 SSTORE POP PUSH1 0x1 ADD PUSH2 0xB2F JUMP JUMPDEST POP SWAP1 JUMP JUMPDEST PUSH1 0x0 PUSH2 0xB5E PUSH2 0xB59 DUP5 PUSH2 0xF54 JUMP JUMPDEST PUSH2 0xF2F JUMP JUMPDEST SWAP1 POP DUP3 DUP2 MSTORE PUSH1 0x20 DUP2 ADD DUP5 DUP5 DUP5 ADD GT ISZERO PUSH2 0xB76 JUMPI PUSH1 0x0 DUP1 REVERT JUMPDEST PUSH2 0xB81 DUP5 DUP3 DUP6 PUSH2 0x1098 JUMP JUMPDEST POP SWAP4 SWAP3 POP POP POP JUMP JUMPDEST PUSH1 0x0 DUP2 CALLDATALOAD SWAP1 POP PUSH2 0xB98 DUP2 PUSH2 0x1363 JUMP JUMPDEST SWAP3 SWAP2 POP POP JUMP JUMPDEST PUSH1 0x0 DUP3 PUSH1 0x1F DUP4 ADD SLT PUSH2 0xBAF JUMPI PUSH1 0x0 DUP1 REVERT JUMPDEST DUP2 CALLDATALOAD PUSH2 0xBBF DUP5 DUP3 PUSH1 0x20 DUP7 ADD PUSH2 0xB4B JUMP JUMPDEST SWAP2 POP POP SWAP3 SWAP2 POP POP JUMP JUMPDEST PUSH1 0x0 DUP2 CALLDATALOAD SWAP1 POP PUSH2 0xBD7 DUP2 PUSH2 0x137A JUMP JUMPDEST SWAP3 SWAP2 POP POP JUMP JUMPDEST PUSH1 0x0 PUSH1 0x20 DUP3 DUP5 SUB SLT ISZERO PUSH2 0xBEF JUMPI PUSH1 0x0 DUP1 REVERT JUMPDEST PUSH1 0x0 PUSH2 0xBFD DUP5 DUP3 DUP6 ADD PUSH2 0xB89 JUMP JUMPDEST SWAP2 POP POP SWAP3 SWAP2 POP POP JUMP JUMPDEST PUSH1 0x0 DUP1 PUSH1 0x40 DUP4 DUP6 SUB SLT ISZERO PUSH2 0xC19 JUMPI PUSH1 0x0 DUP1 REVERT JUMPDEST PUSH1 0x0 PUSH2 0xC27 DUP6 DUP3 DUP7 ADD PUSH2 0xB89 JUMP JUMPDEST SWAP3 POP POP PUSH1 0x20 PUSH2 0xC38 DUP6 DUP3 DUP7 ADD PUSH2 0xB89 JUMP JUMPDEST SWAP2 POP POP SWAP3 POP SWAP3 SWAP1 POP JUMP JUMPDEST PUSH1 0x0 PUSH1 0x20 DUP3 DUP5 SUB SLT ISZERO PUSH2 0xC54 JUMPI PUSH1 0x0 DUP1 REVERT JUMPDEST PUSH1 0x0 DUP3 ADD CALLDATALOAD PUSH8 0xFFFFFFFFFFFFFFFF DUP2 GT ISZERO PUSH2 0xC6E JUMPI PUSH1 0x0 DUP1 REVERT JUMPDEST PUSH2 0xC7A DUP5 DUP3 DUP6 ADD PUSH2 0xB9E JUMP JUMPDEST SWAP2 POP POP SWAP3 SWAP2 POP POP JUMP JUMPDEST PUSH1 0x0 PUSH1 0x20 DUP3 DUP5 SUB SLT ISZERO PUSH2 0xC95 JUMPI PUSH1 0x0 DUP1 REVERT JUMPDEST PUSH1 0x0 PUSH2 0xCA3 DUP5 DUP3 DUP6 ADD PUSH2 0xBC8 JUMP JUMPDEST SWAP2 POP POP SWAP3 SWAP2 POP POP JUMP JUMPDEST PUSH2 0xCB5 DUP2 PUSH2 0x105C JUMP JUMPDEST DUP3 MSTORE POP POP JUMP JUMPDEST PUSH2 0xCCC PUSH2 0xCC7 DUP3 PUSH2 0x105C JUMP JUMPDEST PUSH2 0x1186 JUMP JUMPDEST DUP3 MSTORE POP POP JUMP JUMPDEST PUSH1 0x0 PUSH2 0xCDD DUP3 PUSH2 0xF85 JUMP JUMPDEST PUSH2 0xCE7 DUP2 DUP6 PUSH2 0xF90 JUMP JUMPDEST SWAP4 POP PUSH2 0xCF7 DUP2 DUP6 PUSH1 0x20 DUP7 ADD PUSH2 0x10A7 JUMP JUMPDEST PUSH2 0xD00 DUP2 PUSH2 0x12A1 JUMP JUMPDEST DUP5 ADD SWAP2 POP POP SWAP3 SWAP2 POP POP JUMP JUMPDEST PUSH1 0x0 PUSH2 0xD16 DUP3 PUSH2 0xF85 JUMP JUMPDEST PUSH2 0xD20 DUP2 DUP6 PUSH2 0xFA1 JUMP JUMPDEST SWAP4 POP PUSH2 0xD30 DUP2 DUP6 PUSH1 0x20 DUP7 ADD PUSH2 0x10A7 JUMP JUMPDEST DUP1 DUP5 ADD SWAP2 POP POP SWAP3 SWAP2 POP POP JUMP JUMPDEST PUSH1 0x0 PUSH2 0xD49 PUSH1 0xC DUP4 PUSH2 0xFA1 JUMP JUMPDEST SWAP2 POP PUSH2 0xD54 DUP3 PUSH2 0x12BF JUMP JUMPDEST PUSH1 0xC DUP3 ADD SWAP1 POP SWAP2 SWAP1 POP JUMP JUMPDEST PUSH1 0x0 PUSH2 0xD6C PUSH1 0x2 DUP4 PUSH2 0xFA1 JUMP JUMPDEST SWAP2 POP PUSH2 0xD77 DUP3 PUSH2 0x12E8 JUMP JUMPDEST PUSH1 0x2 DUP3 ADD SWAP1 POP SWAP2 SWAP1 POP JUMP JUMPDEST PUSH1 0x0 PUSH2 0xD8F PUSH1 0xD DUP4 PUSH2 0xFA1 JUMP JUMPDEST SWAP2 POP PUSH2 0xD9A DUP3 PUSH2 0x1311 JUMP JUMPDEST PUSH1 0xD DUP3 ADD SWAP1 POP SWAP2 SWAP1 POP JUMP JUMPDEST PUSH1 0x0 PUSH2 0xDB2 PUSH1 0xC DUP4 PUSH2 0xFA1 JUMP JUMPDEST SWAP2 POP PUSH2 0xDBD DUP3 PUSH2 0x133A JUMP JUMPDEST PUSH1 0xC DUP3 ADD SWAP1 POP SWAP2 SWAP1 POP JUMP JUMPDEST PUSH2 0xDD1 DUP2 PUSH2 0x108E JUMP JUMPDEST DUP3 MSTORE POP POP JUMP JUMPDEST PUSH2 0xDE8 PUSH2 0xDE3 DUP3 PUSH2 0x108E JUMP JUMPDEST PUSH2 0x11AA JUMP JUMPDEST DUP3 MSTORE POP POP JUMP JUMPDEST PUSH1 0x0 PUSH2 0xDFA DUP3 DUP5 PUSH2 0xCBB JUMP JUMPDEST PUSH1 0x14 DUP3 ADD SWAP2 POP DUP2 SWAP1 POP SWAP3 SWAP2 POP POP JUMP JUMPDEST PUSH1 0x0 PUSH2 0xE14 DUP3 PUSH2 0xDA5 JUMP JUMPDEST SWAP2 POP PUSH2 0xE20 DUP3 DUP7 PUSH2 0xD0B JUMP JUMPDEST SWAP2 POP PUSH2 0xE2B DUP3 PUSH2 0xD82 JUMP JUMPDEST SWAP2 POP PUSH2 0xE37 DUP3 DUP6 PUSH2 0xD0B JUMP JUMPDEST SWAP2 POP PUSH2 0xE42 DUP3 PUSH2 0xD3C JUMP JUMPDEST SWAP2 POP PUSH2 0xE4E DUP3 DUP5 PUSH2 0xD0B JUMP JUMPDEST SWAP2 POP PUSH2 0xE59 DUP3 PUSH2 0xD5F JUMP JUMPDEST SWAP2 POP DUP2 SWAP1 POP SWAP5 SWAP4 POP POP POP POP JUMP JUMPDEST PUSH1 0x0 PUSH2 0xE72 DUP3 DUP8 PUSH2 0xDD7 JUMP JUMPDEST PUSH1 0x20 DUP3 ADD SWAP2 POP PUSH2 0xE82 DUP3 DUP7 PUSH2 0xCBB JUMP JUMPDEST PUSH1 0x14 DUP3 ADD SWAP2 POP PUSH2 0xE92 DUP3 DUP6 PUSH2 0xDD7 JUMP JUMPDEST PUSH1 0x20 DUP3 ADD SWAP2 POP PUSH2 0xEA2 DUP3 DUP5 PUSH2 0xDD7 JUMP JUMPDEST PUSH1 0x20 DUP3 ADD SWAP2 POP DUP2 SWAP1 POP SWAP6 SWAP5 POP POP POP POP POP JUMP JUMPDEST PUSH1 0x0 PUSH1 0x60 DUP3 ADD SWAP1 POP PUSH2 0xEC9 PUSH1 0x0 DUP4 ADD DUP7 PUSH2 0xCAC JUMP JUMPDEST PUSH2 0xED6 PUSH1 0x20 DUP4 ADD DUP6 PUSH2 0xCAC JUMP JUMPDEST DUP2 DUP2 SUB PUSH1 0x40 DUP4 ADD MSTORE PUSH2 0xEE8 DUP2 DUP5 PUSH2 0xCD2 JUMP JUMPDEST SWAP1 POP SWAP5 SWAP4 POP POP POP POP JUMP JUMPDEST PUSH1 0x0 PUSH1 0x20 DUP3 ADD SWAP1 POP DUP2 DUP2 SUB PUSH1 0x0 DUP4 ADD MSTORE PUSH2 0xF0C DUP2 DUP5 PUSH2 0xCD2 JUMP JUMPDEST SWAP1 POP SWAP3 SWAP2 POP POP JUMP JUMPDEST PUSH1 0x0 PUSH1 0x20 DUP3 ADD SWAP1 POP PUSH2 0xF29 PUSH1 0x0 DUP4 ADD DUP5 PUSH2 0xDC8 JUMP JUMPDEST SWAP3 SWAP2 POP POP JUMP JUMPDEST PUSH1 0x0 PUSH2 0xF39 PUSH2 0xF4A JUMP JUMPDEST SWAP1 POP PUSH2 0xF45 DUP3 DUP3 PUSH2 0x110C JUMP JUMPDEST SWAP2 SWAP1 POP JUMP JUMPDEST PUSH1 0x0 PUSH1 0x40 MLOAD SWAP1 POP SWAP1 JUMP JUMPDEST PUSH1 0x0 PUSH8 0xFFFFFFFFFFFFFFFF DUP3 GT ISZERO PUSH2 0xF6F JUMPI PUSH2 0xF6E PUSH2 0x1272 JUMP JUMPDEST JUMPDEST PUSH2 0xF78 DUP3 PUSH2 0x12A1 JUMP JUMPDEST SWAP1 POP PUSH1 0x20 DUP2 ADD SWAP1 POP SWAP2 SWAP1 POP JUMP JUMPDEST PUSH1 0x0 DUP2 MLOAD SWAP1 POP SWAP2 SWAP1 POP JUMP JUMPDEST PUSH1 0x0 DUP3 DUP3 MSTORE PUSH1 0x20 DUP3 ADD SWAP1 POP SWAP3 SWAP2 POP POP JUMP JUMPDEST PUSH1 0x0 DUP2 SWAP1 POP SWAP3 SWAP2 POP POP JUMP JUMPDEST PUSH1 0x0 PUSH2 0xFB7 DUP3 PUSH2 0x108E JUMP JUMPDEST SWAP2 POP PUSH2 0xFC2 DUP4 PUSH2 0x108E JUMP JUMPDEST SWAP3 POP DUP3 PUSH32 0xFFFFFFFFFFFFFFFFFFFFFFFFFFFFFFFFFFFFFFFFFFFFFFFFFFFFFFFFFFFFFFFF SUB DUP3 GT ISZERO PUSH2 0xFF7 JUMPI PUSH2 0xFF6 PUSH2 0x11E5 JUMP JUMPDEST JUMPDEST DUP3 DUP3 ADD SWAP1 POP SWAP3 SWAP2 POP POP JUMP JUMPDEST PUSH1 0x0 PUSH2 0x100D DUP3 PUSH2 0x108E JUMP JUMPDEST SWAP2 POP PUSH2 0x1018 DUP4 PUSH2 0x108E JUMP JUMPDEST SWAP3 POP DUP2 PUSH32 0xFFFFFFFFFFFFFFFFFFFFFFFFFFFFFFFFFFFFFFFFFFFFFFFFFFFFFFFFFFFFFFFF DIV DUP4 GT DUP3 ISZERO ISZERO AND ISZERO PUSH2 0x1051 JUMPI PUSH2 0x1050 PUSH2 0x11E5 JUMP JUMPDEST JUMPDEST DUP3 DUP3 MUL SWAP1 POP SWAP3 SWAP2 POP POP JUMP JUMPDEST PUSH1 0x0 PUSH2 0x1067 DUP3 PUSH2 0x106E JUMP JUMPDEST SWAP1 POP SWAP2 SWAP1 POP JUMP JUMPDEST PUSH1 0x0 PUSH20 0xFFFFFFFFFFFFFFFFFFFFFFFFFFFFFFFFFFFFFFFF DUP3 AND SWAP1 POP SWAP2 SWAP1 POP JUMP JUMPDEST PUSH1 0x0 DUP2 SWAP1 POP SWAP2 SWAP1 POP JUMP JUMPDEST DUP3 DUP2 DUP4 CALLDATACOPY PUSH1 0x0 DUP4 DUP4 ADD MSTORE POP POP POP JUMP JUMPDEST PUSH1 0x0 JUMPDEST DUP4 DUP2 LT ISZERO PUSH2 0x10C5 JUMPI DUP1 DUP3 ADD MLOAD DUP2 DUP5 ADD MSTORE PUSH1 0x20 DUP2 ADD SWAP1 POP PUSH2 0x10AA JUMP JUMPDEST DUP4 DUP2 GT ISZERO PUSH2 0x10D4 JUMPI PUSH1 0x0 DUP5 DUP5 ADD MSTORE JUMPDEST POP POP POP POP JUMP JUMPDEST PUSH1 0x0 PUSH1 0x2 DUP3 DIV SWAP1 POP PUSH1 0x1 DUP3 AND DUP1 PUSH2 0x10F2 JUMPI PUSH1 0x7F DUP3 AND SWAP2 POP JUMPDEST PUSH1 0x20 DUP3 LT DUP2 EQ ISZERO PUSH2 0x1106 JUMPI PUSH2 0x1105 PUSH2 0x1243 JUMP JUMPDEST JUMPDEST POP SWAP2 SWAP1 POP JUMP JUMPDEST PUSH2 0x1115 DUP3 PUSH2 0x12A1 JUMP JUMPDEST DUP2 ADD DUP2 DUP2 LT PUSH8 0xFFFFFFFFFFFFFFFF DUP3 GT OR ISZERO PUSH2 0x1134 JUMPI PUSH2 0x1133 PUSH2 0x1272 JUMP JUMPDEST JUMPDEST DUP1 PUSH1 0x40 MSTORE POP POP POP JUMP JUMPDEST PUSH1 0x0 PUSH2 0x1148 DUP3 PUSH2 0x108E JUMP JUMPDEST SWAP2 POP PUSH32 0xFFFFFFFFFFFFFFFFFFFFFFFFFFFFFFFFFFFFFFFFFFFFFFFFFFFFFFFFFFFFFFFF DUP3 EQ ISZERO PUSH2 0x117B JUMPI PUSH2 0x117A PUSH2 0x11E5 JUMP JUMPDEST JUMPDEST PUSH1 0x1 DUP3 ADD SWAP1 POP SWAP2 SWAP1 POP JUMP JUMPDEST PUSH1 0x0 PUSH2 0x1191 DUP3 PUSH2 0x1198 JUMP JUMPDEST SWAP1 POP SWAP2 SWAP1 POP JUMP JUMPDEST PUSH1 0x0 PUSH2 0x11A3 DUP3 PUSH2 0x12B2 JUMP JUMPDEST SWAP1 POP SWAP2 SWAP1 POP JUMP JUMPDEST PUSH1 0x0 DUP2 SWAP1 POP SWAP2 SWAP1 POP JUMP JUMPDEST PUSH1 0x0 PUSH2 0x11BF DUP3 PUSH2 0x108E JUMP JUMPDEST SWAP2 POP PUSH2 0x11CA DUP4 PUSH2 0x108E JUMP JUMPDEST SWAP3 POP DUP3 PUSH2 0x11DA JUMPI PUSH2 0x11D9 PUSH2 0x1214 JUMP JUMPDEST JUMPDEST DUP3 DUP3 MOD SWAP1 POP SWAP3 SWAP2 POP POP JUMP JUMPDEST PUSH32 0x4E487B7100000000000000000000000000000000000000000000000000000000 PUSH1 0x0 MSTORE PUSH1 0x11 PUSH1 0x4 MSTORE PUSH1 0x24 PUSH1 0x0 REVERT JUMPDEST PUSH32 0x4E487B7100000000000000000000000000000000000000000000000000000000 PUSH1 0x0 MSTORE PUSH1 0x12 PUSH1 0x4 MSTORE PUSH1 0x24 PUSH1 0x0 REVERT JUMPDEST PUSH32 0x4E487B7100000000000000000000000000000000000000000000000000000000 PUSH1 0x0 MSTORE PUSH1 0x22 PUSH1 0x4 MSTORE PUSH1 0x24 PUSH1 0x0 REVERT JUMPDEST PUSH32 0x4E487B7100000000000000000000000000000000000000000000000000000000 PUSH1 0x0 MSTORE PUSH1 0x41 PUSH1 0x4 MSTORE PUSH1 0x24 PUSH1 0x0 REVERT JUMPDEST PUSH1 0x0 PUSH1 0x1F NOT PUSH1 0x1F DUP4 ADD AND SWAP1 POP SWAP2 SWAP1 POP JUMP JUMPDEST PUSH1 0x0 DUP2 PUSH1 0x60 SHL SWAP1 POP SWAP2 SWAP1 POP JUMP JUMPDEST PUSH32 0x222C22726573756C74223A220000000000000000000000000000000000000000 PUSH1 0x0 DUP3 ADD MSTORE POP JUMP JUMPDEST PUSH32 0x227D000000000000000000000000000000000000000000000000000000000000 PUSH1 0x0 DUP3 ADD MSTORE POP JUMP JUMPDEST PUSH32 0x222C22706C6179657232223A2200000000000000000000000000000000000000 PUSH1 0x0 DUP3 ADD MSTORE POP JUMP JUMPDEST PUSH32 0x7B22706C6179657231223A220000000000000000000000000000000000000000 PUSH1 0x0 DUP3 ADD MSTORE POP JUMP JUMPDEST PUSH2 0x136C DUP2 PUSH2 0x105C JUMP JUMPDEST DUP2 EQ PUSH2 0x1377 JUMPI PUSH1 0x0 DUP1 REVERT JUMPDEST POP JUMP JUMPDEST PUSH2 0x1383 DUP2 PUSH2 0x108E JUMP JUMPDEST DUP2 EQ PUSH2 0x138E JUMPI PUSH1 0x0 DUP1 REVERT JUMPDEST POP JUMP INVALID LOG2 PUSH5 0x6970667358 0x22 SLT KECCAK256 RETURNDATACOPY 0xDA SWAP16 SGT 0xFB SGT 0xB9 0x28 MSIZE 0xCC 0xEC EQ PUSH6 0x99ED433AF8E9 PUSH9 0x69214BA2CA1D4C9E54 SWAP3 0x4D PUSH3 0x64736F PUSH13 0x63430008040033000000000000 "
        },
        "methodIdentifiers": {
          "Play(address,address)": "907b6ba3",
          "gameCount()": "4d1975b4",
          "games(uint256)": "117a5b90",
          "toString(address)": "56ca623e",
          "toString(bytes)": "71aad10d"
        }
      }
    }
  }
}