{
  "_format": "hh-sol-artifact-1",
  "contractName": "Simple",
  "sourceName": "contracts/Simple.sol",
  "abi": [
    {
      "inputs": [],
      "name": "getValue",
      "outputs": [
        {
          "internalType": "string",
          "name": "",
          "type": "string"
        }
      ],
      "stateMutability": "view",
      "type": "function"
    },
    {
      "inputs": [
        {
          "internalType": "string",
          "name": "a",
          "type": "string"
        },
        {
          "internalType": "string",
          "name": "b",
          "type": "string"
        }
      ],
      "name": "setValue",
      "outputs": [],
      "stateMutability": "nonpayable",
      "type": "function"
    }
  ],
  "bytecode": "0x608060405234801561001057600080fd5b50610588806100206000396000f3fe608060405234801561001057600080fd5b50600436106100365760003560e01c8063209652551461003b578063ec86cfad14610059575b600080fd5b610043610075565b6040516100509190610376565b60405180910390f35b610073600480360381019061006e919061024e565b610107565b005b60606000805461008490610457565b80601f01602080910402602001604051908101604052809291908181526020018280546100b090610457565b80156100fd5780601f106100d2576101008083540402835291602001916100fd565b820191906000526020600020905b8154815290600101906020018083116100e057829003601f168201915b5050505050905090565b818160405160200161011a929190610347565b6040516020818303038152906040526000908051906020019061013e929190610143565b505050565b82805461014f90610457565b90600052602060002090601f01602090048101928261017157600085556101b8565b82601f1061018a57805160ff19168380011785556101b8565b828001600101855582156101b8579182015b828111156101b757825182559160200191906001019061019c565b5b5090506101c591906101c9565b5090565b5b808211156101e25760008160009055506001016101ca565b5090565b60006101f96101f4846103bd565b610398565b90508281526020810184848401111561021157600080fd5b61021c848285610415565b509392505050565b600082601f83011261023557600080fd5b81356102458482602086016101e6565b91505092915050565b6000806040838503121561026157600080fd5b600083013567ffffffffffffffff81111561027b57600080fd5b61028785828601610224565b925050602083013567ffffffffffffffff8111156102a457600080fd5b6102b085828601610224565b9150509250929050565b60006102c5826103ee565b6102cf81856103f9565b93506102df818560208601610424565b6102e881610518565b840191505092915050565b60006102fe826103ee565b610308818561040a565b9350610318818560208601610424565b80840191505092915050565b600061033160018361040a565b915061033c82610529565b600182019050919050565b600061035382856102f3565b915061035e82610324565b915061036a82846102f3565b91508190509392505050565b6000602082019050818103600083015261039081846102ba565b905092915050565b60006103a26103b3565b90506103ae8282610489565b919050565b6000604051905090565b600067ffffffffffffffff8211156103d8576103d76104e9565b5b6103e182610518565b9050602081019050919050565b600081519050919050565b600082825260208201905092915050565b600081905092915050565b82818337600083830152505050565b60005b83811015610442578082015181840152602081019050610427565b83811115610451576000848401525b50505050565b6000600282049050600182168061046f57607f821691505b60208210811415610483576104826104ba565b5b50919050565b61049282610518565b810181811067ffffffffffffffff821117156104b1576104b06104e9565b5b80604052505050565b7f4e487b7100000000000000000000000000000000000000000000000000000000600052602260045260246000fd5b7f4e487b7100000000000000000000000000000000000000000000000000000000600052604160045260246000fd5b6000601f19601f8301169050919050565b7f200000000000000000000000000000000000000000000000000000000000000060008201525056fea264697066735822122060b9fb34a0e3a8d764c8f38f8a6b63bbd40d926df6dc994db973ad28bc5f679264736f6c63430008040033",
  "linkReferences": {},
  "deployedLinkReferences": {}
}