{
  "_format": "hh-sol-artifact-1",
  "contractName": "RPS",
  "sourceName": "contracts/RockPaperScissors.sol",
  "abi": [
    {
      "inputs": [
        {
          "internalType": "address",
          "name": "player1",
          "type": "address"
        },
        {
          "internalType": "address",
          "name": "player2",
          "type": "address"
        }
      ],
      "name": "Play",
      "outputs": [],
      "stateMutability": "nonpayable",
      "type": "function"
    },
    {
      "inputs": [],
      "name": "gameCount",
      "outputs": [
        {
          "internalType": "uint256",
          "name": "",
          "type": "uint256"
        }
      ],
      "stateMutability": "view",
      "type": "function"
    },
    {
      "inputs": [
        {
          "internalType": "uint256",
          "name": "",
          "type": "uint256"
        }
      ],
      "name": "games",
      "outputs": [
        {
          "internalType": "string",
          "name": "",
          "type": "string"
        }
      ],
      "stateMutability": "view",
      "type": "function"
    },
    {
      "inputs": [
        {
          "internalType": "address",
          "name": "account",
          "type": "address"
        }
      ],
      "name": "toString",
      "outputs": [
        {
          "internalType": "string",
          "name": "",
          "type": "string"
        }
      ],
      "stateMutability": "pure",
      "type": "function"
    },
    {
      "inputs": [
        {
          "internalType": "bytes",
          "name": "data",
          "type": "bytes"
        }
      ],
      "name": "toString",
      "outputs": [
        {
          "internalType": "string",
          "name": "",
          "type": "string"
        }
      ],
      "stateMutability": "pure",
      "type": "function"
    }
  ],
  "bytecode": "0x608060405234801561001057600080fd5b5061114c806100206000396000f3fe608060405234801561001057600080fd5b50600436106100575760003560e01c8063117a5b901461005c5780634d1975b41461008c57806356ca623e146100aa57806371aad10d146100da578063907b6ba31461010a575b600080fd5b61007660048036038101906100719190610a55565b610126565b6040516100839190610c77565b60405180910390f35b6100946101c6565b6040516100a19190610c99565b60405180910390f35b6100c460048036038101906100bf91906109af565b6101cc565b6040516100d19190610c77565b60405180910390f35b6100f460048036038101906100ef9190610a14565b6101fd565b6040516101019190610c77565b60405180910390f35b610124600480360381019061011f91906109d8565b61064d565b005b6001602052806000526040600020600091509050805461014590610e5f565b80601f016020809104026020016040519081016040528092919081815260200182805461017190610e5f565b80156101be5780601f10610193576101008083540402835291602001916101be565b820191906000526020600020905b8154815290600101906020018083116101a157829003601f168201915b505050505081565b60005481565b60606101f6826040516020016101e29190610bb1565b6040516020818303038152906040526101fd565b9050919050565b606060006040518060400160405280601081526020017f303132333435363738396162636465660000000000000000000000000000000081525090506000600284516102499190610d87565b60026102559190610d31565b67ffffffffffffffff811115610294577f4e487b7100000000000000000000000000000000000000000000000000000000600052604160045260246000fd5b6040519080825280601f01601f1916602001820160405280156102c65781602001600182028036833780820191505090505b5090507f300000000000000000000000000000000000000000000000000000000000000081600081518110610324577f4e487b7100000000000000000000000000000000000000000000000000000000600052603260045260246000fd5b60200101907effffffffffffffffffffffffffffffffffffffffffffffffffffffffffffff1916908160001a9053507f7800000000000000000000000000000000000000000000000000000000000000816001815181106103ae577f4e487b7100000000000000000000000000000000000000000000000000000000600052603260045260246000fd5b60200101907effffffffffffffffffffffffffffffffffffffffffffffffffffffffffffff1916908160001a90535060005b845181101561064257826004868381518110610425577f4e487b7100000000000000000000000000000000000000000000000000000000600052603260045260246000fd5b602001015160f81c60f81b7effffffffffffffffffffffffffffffffffffffffffffffffffffffffffffff1916901c60f81c60ff1681518110610491577f4e487b7100000000000000000000000000000000000000000000000000000000600052603260045260246000fd5b602001015160f81c60f81b826002836104aa9190610d87565b60026104b69190610d31565b815181106104ed577f4e487b7100000000000000000000000000000000000000000000000000000000600052603260045260246000fd5b60200101907effffffffffffffffffffffffffffffffffffffffffffffffffffffffffffff1916908160001a90535082600f60f81b86838151811061055b577f4e487b7100000000000000000000000000000000000000000000000000000000600052603260045260246000fd5b602001015160f81c60f81b1660f81c60ff16815181106105a4577f4e487b7100000000000000000000000000000000000000000000000000000000600052603260045260246000fd5b602001015160f81c60f81b826002836105bd9190610d87565b60036105c99190610d31565b81518110610600577f4e487b7100000000000000000000000000000000000000000000000000000000600052603260045260246000fd5b60200101907effffffffffffffffffffffffffffffffffffffffffffffffffffffffffffff1916908160001a905350808061063a90610ec2565b9150506103e0565b508092505050919050565b6000600360005484444260405160200161066a9493929190610c29565b6040516020818303038152906040528051906020012060001c61068d9190610f39565b9050600060036000548444426040516020016106ac9493929190610c29565b6040516020818303038152906040528051906020012060001c6106cf9190610f39565b905060006040518060400160405280600281526020017f6477000000000000000000000000000000000000000000000000000000000000815250905060008314801561071b5750600282145b8061073257506001831480156107315750600082145b5b8061074957506002831480156107485750600182145b5b15610787576040518060400160405280600281526020017f703100000000000000000000000000000000000000000000000000000000000081525090505b6000821480156107975750600283145b806107ae57506001821480156107ad5750600083145b5b806107c557506002821480156107c45750600183145b5b15610803576040518060400160405280600281526020017f703200000000000000000000000000000000000000000000000000000000000081525090505b61080c856101cc565b610815866101cc565b8260405160200161082893929190610bcc565b6040516020818303038152906040526001600080600081548092919061084d90610ec2565b919050558152602001908152602001600020908051906020019061087292919061087a565b505050505050565b82805461088690610e5f565b90600052602060002090601f0160209004810192826108a857600085556108ef565b82601f106108c157805160ff19168380011785556108ef565b828001600101855582156108ef579182015b828111156108ee5782518255916020019190600101906108d3565b5b5090506108fc9190610900565b5090565b5b80821115610919576000816000905550600101610901565b5090565b600061093061092b84610cd9565b610cb4565b90508281526020810184848401111561094857600080fd5b610953848285610e1d565b509392505050565b60008135905061096a816110e8565b92915050565b600082601f83011261098157600080fd5b813561099184826020860161091d565b91505092915050565b6000813590506109a9816110ff565b92915050565b6000602082840312156109c157600080fd5b60006109cf8482850161095b565b91505092915050565b600080604083850312156109eb57600080fd5b60006109f98582860161095b565b9250506020610a0a8582860161095b565b9150509250929050565b600060208284031215610a2657600080fd5b600082013567ffffffffffffffff811115610a4057600080fd5b610a4c84828501610970565b91505092915050565b600060208284031215610a6757600080fd5b6000610a758482850161099a565b91505092915050565b610a8f610a8a82610de1565b610f0b565b82525050565b6000610aa082610d0a565b610aaa8185610d15565b9350610aba818560208601610e2c565b610ac381611026565b840191505092915050565b6000610ad982610d0a565b610ae38185610d26565b9350610af3818560208601610e2c565b80840191505092915050565b6000610b0c600c83610d26565b9150610b1782611044565b600c82019050919050565b6000610b2f600283610d26565b9150610b3a8261106d565b600282019050919050565b6000610b52600d83610d26565b9150610b5d82611096565b600d82019050919050565b6000610b75600c83610d26565b9150610b80826110bf565b600c82019050919050565b610b9481610e13565b82525050565b610bab610ba682610e13565b610f2f565b82525050565b6000610bbd8284610a7e565b60148201915081905092915050565b6000610bd782610b68565b9150610be38286610ace565b9150610bee82610b45565b9150610bfa8285610ace565b9150610c0582610aff565b9150610c118284610ace565b9150610c1c82610b22565b9150819050949350505050565b6000610c358287610b9a565b602082019150610c458286610a7e565b601482019150610c558285610b9a565b602082019150610c658284610b9a565b60208201915081905095945050505050565b60006020820190508181036000830152610c918184610a95565b905092915050565b6000602082019050610cae6000830184610b8b565b92915050565b6000610cbe610ccf565b9050610cca8282610e91565b919050565b6000604051905090565b600067ffffffffffffffff821115610cf457610cf3610ff7565b5b610cfd82611026565b9050602081019050919050565b600081519050919050565b600082825260208201905092915050565b600081905092915050565b6000610d3c82610e13565b9150610d4783610e13565b9250827fffffffffffffffffffffffffffffffffffffffffffffffffffffffffffffffff03821115610d7c57610d7b610f6a565b5b828201905092915050565b6000610d9282610e13565b9150610d9d83610e13565b9250817fffffffffffffffffffffffffffffffffffffffffffffffffffffffffffffffff0483118215151615610dd657610dd5610f6a565b5b828202905092915050565b6000610dec82610df3565b9050919050565b600073ffffffffffffffffffffffffffffffffffffffff82169050919050565b6000819050919050565b82818337600083830152505050565b60005b83811015610e4a578082015181840152602081019050610e2f565b83811115610e59576000848401525b50505050565b60006002820490506001821680610e7757607f821691505b60208210811415610e8b57610e8a610fc8565b5b50919050565b610e9a82611026565b810181811067ffffffffffffffff82111715610eb957610eb8610ff7565b5b80604052505050565b6000610ecd82610e13565b91507fffffffffffffffffffffffffffffffffffffffffffffffffffffffffffffffff821415610f0057610eff610f6a565b5b600182019050919050565b6000610f1682610f1d565b9050919050565b6000610f2882611037565b9050919050565b6000819050919050565b6000610f4482610e13565b9150610f4f83610e13565b925082610f5f57610f5e610f99565b5b828206905092915050565b7f4e487b7100000000000000000000000000000000000000000000000000000000600052601160045260246000fd5b7f4e487b7100000000000000000000000000000000000000000000000000000000600052601260045260246000fd5b7f4e487b7100000000000000000000000000000000000000000000000000000000600052602260045260246000fd5b7f4e487b7100000000000000000000000000000000000000000000000000000000600052604160045260246000fd5b6000601f19601f8301169050919050565b60008160601b9050919050565b7f222c22726573756c74223a220000000000000000000000000000000000000000600082015250565b7f227d000000000000000000000000000000000000000000000000000000000000600082015250565b7f222c22706c6179657232223a2200000000000000000000000000000000000000600082015250565b7f7b22706c6179657231223a220000000000000000000000000000000000000000600082015250565b6110f181610de1565b81146110fc57600080fd5b50565b61110881610e13565b811461111357600080fd5b5056fea2646970667358221220ff24250886a4c577f3bed77cd5acf7ba0ad543cbdfb073747587e023256fef7e64736f6c63430008040033",
  "linkReferences": {},
  "deployedLinkReferences": {}
}