{
  "_format": "hh-sol-artifact-1",
  "contractName": "RPS",
  "sourceName": "contracts/RockPaperScissors3.sol",
  "abi": [
    {
      "inputs": [
        {
          "internalType": "address",
          "name": "player1",
          "type": "address"
        },
        {
          "internalType": "address",
          "name": "player2",
          "type": "address"
        }
      ],
      "name": "Play",
      "outputs": [],
      "stateMutability": "nonpayable",
      "type": "function"
    },
    {
      "inputs": [],
      "name": "gameCount",
      "outputs": [
        {
          "internalType": "uint256",
          "name": "",
          "type": "uint256"
        }
      ],
      "stateMutability": "view",
      "type": "function"
    },
    {
      "inputs": [
        {
          "internalType": "uint256",
          "name": "",
          "type": "uint256"
        }
      ],
      "name": "games",
      "outputs": [
        {
          "internalType": "address",
          "name": "p1",
          "type": "address"
        },
        {
          "internalType": "address",
          "name": "p2",
          "type": "address"
        },
        {
          "internalType": "uint256",
          "name": "difficulty",
          "type": "uint256"
        },
        {
          "internalType": "uint256",
          "name": "timestamp",
          "type": "uint256"
        }
      ],
      "stateMutability": "view",
      "type": "function"
    },
    {
      "inputs": [
        {
          "internalType": "uint256",
          "name": "gameId",
          "type": "uint256"
        }
      ],
      "name": "getGame",
      "outputs": [
        {
          "internalType": "string",
          "name": "",
          "type": "string"
        }
      ],
      "stateMutability": "view",
      "type": "function"
    },
    {
      "inputs": [
        {
          "internalType": "address",
          "name": "account",
          "type": "address"
        }
      ],
      "name": "toString",
      "outputs": [
        {
          "internalType": "string",
          "name": "",
          "type": "string"
        }
      ],
      "stateMutability": "pure",
      "type": "function"
    },
    {
      "inputs": [
        {
          "internalType": "bytes",
          "name": "data",
          "type": "bytes"
        }
      ],
      "name": "toString",
      "outputs": [
        {
          "internalType": "string",
          "name": "",
          "type": "string"
        }
      ],
      "stateMutability": "pure",
      "type": "function"
    }
  ],
  "bytecode": "0x608060405234801561001057600080fd5b50611369806100206000396000f3fe608060405234801561001057600080fd5b50600436106100625760003560e01c8063117a5b90146100675780634d1975b41461009a57806356ca623e146100b857806371aad10d146100e8578063907b6ba314610118578063a2f77bcc14610134575b600080fd5b610081600480360381019061007c9190610c7f565b610164565b6040516100919493929190610eb0565b60405180910390f35b6100a26101d4565b6040516100af9190610f17565b60405180910390f35b6100d260048036038101906100cd9190610bd9565b6101da565b6040516100df9190610ef5565b60405180910390f35b61010260048036038101906100fd9190610c3e565b61020b565b60405161010f9190610ef5565b60405180910390f35b610132600480360381019061012d9190610c02565b61065b565b005b61014e60048036038101906101499190610c7f565b6107ba565b60405161015b9190610ef5565b60405180910390f35b60016020528060005260406000206000915090508060000160009054906101000a900473ffffffffffffffffffffffffffffffffffffffff16908060010160009054906101000a900473ffffffffffffffffffffffffffffffffffffffff16908060020154908060030154905084565b60005481565b6060610204826040516020016101f09190610dea565b60405160208183030381529060405261020b565b9050919050565b606060006040518060400160405280601081526020017f303132333435363738396162636465660000000000000000000000000000000081525090506000600284516102579190611005565b60026102639190610faf565b67ffffffffffffffff8111156102a2577f4e487b7100000000000000000000000000000000000000000000000000000000600052604160045260246000fd5b6040519080825280601f01601f1916602001820160405280156102d45781602001600182028036833780820191505090505b5090507f300000000000000000000000000000000000000000000000000000000000000081600081518110610332577f4e487b7100000000000000000000000000000000000000000000000000000000600052603260045260246000fd5b60200101907effffffffffffffffffffffffffffffffffffffffffffffffffffffffffffff1916908160001a9053507f7800000000000000000000000000000000000000000000000000000000000000816001815181106103bc577f4e487b7100000000000000000000000000000000000000000000000000000000600052603260045260246000fd5b60200101907effffffffffffffffffffffffffffffffffffffffffffffffffffffffffffff1916908160001a90535060005b845181101561065057826004868381518110610433577f4e487b7100000000000000000000000000000000000000000000000000000000600052603260045260246000fd5b602001015160f81c60f81b7effffffffffffffffffffffffffffffffffffffffffffffffffffffffffffff1916901c60f81c60ff168151811061049f577f4e487b7100000000000000000000000000000000000000000000000000000000600052603260045260246000fd5b602001015160f81c60f81b826002836104b89190611005565b60026104c49190610faf565b815181106104fb577f4e487b7100000000000000000000000000000000000000000000000000000000600052603260045260246000fd5b60200101907effffffffffffffffffffffffffffffffffffffffffffffffffffffffffffff1916908160001a90535082600f60f81b868381518110610569577f4e487b7100000000000000000000000000000000000000000000000000000000600052603260045260246000fd5b602001015160f81c60f81b1660f81c60ff16815181106105b2577f4e487b7100000000000000000000000000000000000000000000000000000000600052603260045260246000fd5b602001015160f81c60f81b826002836105cb9190611005565b60036105d79190610faf565b8151811061060e577f4e487b7100000000000000000000000000000000000000000000000000000000600052603260045260246000fd5b60200101907effffffffffffffffffffffffffffffffffffffffffffffffffffffffffffff1916908160001a90535080806106489061110e565b9150506103ee565b508092505050919050565b610663610af3565b82816000019073ffffffffffffffffffffffffffffffffffffffff16908173ffffffffffffffffffffffffffffffffffffffff168152505081816020019073ffffffffffffffffffffffffffffffffffffffff16908173ffffffffffffffffffffffffffffffffffffffff1681525050448160400181815250504281606001818152505080600160008060008154809291906106fe9061110e565b91905055815260200190815260200160002060008201518160000160006101000a81548173ffffffffffffffffffffffffffffffffffffffff021916908373ffffffffffffffffffffffffffffffffffffffff16021790555060208201518160010160006101000a81548173ffffffffffffffffffffffffffffffffffffffff021916908373ffffffffffffffffffffffffffffffffffffffff1602179055506040820151816002015560608201518160030155905050505050565b60606000600160008481526020019081526020016000206040518060800160405290816000820160009054906101000a900473ffffffffffffffffffffffffffffffffffffffff1673ffffffffffffffffffffffffffffffffffffffff1673ffffffffffffffffffffffffffffffffffffffff1681526020016001820160009054906101000a900473ffffffffffffffffffffffffffffffffffffffff1673ffffffffffffffffffffffffffffffffffffffff1673ffffffffffffffffffffffffffffffffffffffff16815260200160028201548152602001600382015481525050905060006003848360000151846040015185606001516040516020016108c59493929190610e62565b6040516020818303038152906040528051906020012060001c6108e89190611185565b905060006003858460200151856040015186606001516040516020016109119493929190610e62565b6040516020818303038152906040528051906020012060001c6109349190611185565b905060606000831480156109485750600282145b8061095f575060018314801561095e5750600082145b5b8061097657506002831480156109755750600182145b5b156109b4576040518060400160405280600d81526020017f506c6179657220312057696e730000000000000000000000000000000000000081525090505b6000821480156109c45750600283145b806109db57506001821480156109da5750600083145b5b806109f257506002821480156109f15750600183145b5b15610a30576040518060400160405280600d81526020017f506c6179657220322057696e730000000000000000000000000000000000000081525090505b600082148015610a405750600083145b80610a575750600182148015610a565750600183145b5b80610a6e5750600282148015610a6d5750600283145b5b15610aac576040518060400160405280600481526020017f447261770000000000000000000000000000000000000000000000000000000081525090505b610ab984600001516101da565b610ac685602001516101da565b82604051602001610ad993929190610e05565b604051602081830303815290604052945050505050919050565b6040518060800160405280600073ffffffffffffffffffffffffffffffffffffffff168152602001600073ffffffffffffffffffffffffffffffffffffffff16815260200160008152602001600081525090565b6000610b5a610b5584610f57565b610f32565b905082815260208101848484011115610b7257600080fd5b610b7d84828561109b565b509392505050565b600081359050610b9481611305565b92915050565b600082601f830112610bab57600080fd5b8135610bbb848260208601610b47565b91505092915050565b600081359050610bd38161131c565b92915050565b600060208284031215610beb57600080fd5b6000610bf984828501610b85565b91505092915050565b60008060408385031215610c1557600080fd5b6000610c2385828601610b85565b9250506020610c3485828601610b85565b9150509250929050565b600060208284031215610c5057600080fd5b600082013567ffffffffffffffff811115610c6a57600080fd5b610c7684828501610b9a565b91505092915050565b600060208284031215610c9157600080fd5b6000610c9f84828501610bc4565b91505092915050565b610cb18161105f565b82525050565b610cc8610cc38261105f565b611157565b82525050565b6000610cd982610f88565b610ce38185610f93565b9350610cf38185602086016110aa565b610cfc81611243565b840191505092915050565b6000610d1282610f88565b610d1c8185610fa4565b9350610d2c8185602086016110aa565b80840191505092915050565b6000610d45600c83610fa4565b9150610d5082611261565b600c82019050919050565b6000610d68600283610fa4565b9150610d738261128a565b600282019050919050565b6000610d8b600d83610fa4565b9150610d96826112b3565b600d82019050919050565b6000610dae600c83610fa4565b9150610db9826112dc565b600c82019050919050565b610dcd81611091565b82525050565b610de4610ddf82611091565b61117b565b82525050565b6000610df68284610cb7565b60148201915081905092915050565b6000610e1082610da1565b9150610e1c8286610d07565b9150610e2782610d7e565b9150610e338285610d07565b9150610e3e82610d38565b9150610e4a8284610d07565b9150610e5582610d5b565b9150819050949350505050565b6000610e6e8287610dd3565b602082019150610e7e8286610cb7565b601482019150610e8e8285610dd3565b602082019150610e9e8284610dd3565b60208201915081905095945050505050565b6000608082019050610ec56000830187610ca8565b610ed26020830186610ca8565b610edf6040830185610dc4565b610eec6060830184610dc4565b95945050505050565b60006020820190508181036000830152610f0f8184610cce565b905092915050565b6000602082019050610f2c6000830184610dc4565b92915050565b6000610f3c610f4d565b9050610f4882826110dd565b919050565b6000604051905090565b600067ffffffffffffffff821115610f7257610f71611214565b5b610f7b82611243565b9050602081019050919050565b600081519050919050565b600082825260208201905092915050565b600081905092915050565b6000610fba82611091565b9150610fc583611091565b9250827fffffffffffffffffffffffffffffffffffffffffffffffffffffffffffffffff03821115610ffa57610ff96111b6565b5b828201905092915050565b600061101082611091565b915061101b83611091565b9250817fffffffffffffffffffffffffffffffffffffffffffffffffffffffffffffffff0483118215151615611054576110536111b6565b5b828202905092915050565b600061106a82611071565b9050919050565b600073ffffffffffffffffffffffffffffffffffffffff82169050919050565b6000819050919050565b82818337600083830152505050565b60005b838110156110c85780820151818401526020810190506110ad565b838111156110d7576000848401525b50505050565b6110e682611243565b810181811067ffffffffffffffff8211171561110557611104611214565b5b80604052505050565b600061111982611091565b91507fffffffffffffffffffffffffffffffffffffffffffffffffffffffffffffffff82141561114c5761114b6111b6565b5b600182019050919050565b600061116282611169565b9050919050565b600061117482611254565b9050919050565b6000819050919050565b600061119082611091565b915061119b83611091565b9250826111ab576111aa6111e5565b5b828206905092915050565b7f4e487b7100000000000000000000000000000000000000000000000000000000600052601160045260246000fd5b7f4e487b7100000000000000000000000000000000000000000000000000000000600052601260045260246000fd5b7f4e487b7100000000000000000000000000000000000000000000000000000000600052604160045260246000fd5b6000601f19601f8301169050919050565b60008160601b9050919050565b7f222c22726573756c74223a220000000000000000000000000000000000000000600082015250565b7f227d000000000000000000000000000000000000000000000000000000000000600082015250565b7f222c22706c6179657232223a2200000000000000000000000000000000000000600082015250565b7f7b22706c6179657231223a220000000000000000000000000000000000000000600082015250565b61130e8161105f565b811461131957600080fd5b50565b61132581611091565b811461133057600080fd5b5056fea2646970667358221220c348b537955c8eaec214235efe359ea1b5c40a3795d2807de58884a74287987064736f6c63430008040033",
  "linkReferences": {},
  "deployedLinkReferences": {}
}