{
  "_format": "hh-sol-artifact-1",
  "contractName": "RPS",
  "sourceName": "contracts/RockPaperScissors2.sol",
  "abi": [
    {
      "inputs": [
        {
          "internalType": "address",
          "name": "player1",
          "type": "address"
        },
        {
          "internalType": "address",
          "name": "player2",
          "type": "address"
        }
      ],
      "name": "Play",
      "outputs": [],
      "stateMutability": "nonpayable",
      "type": "function"
    },
    {
      "inputs": [],
      "name": "gameCount",
      "outputs": [
        {
          "internalType": "uint256",
          "name": "",
          "type": "uint256"
        }
      ],
      "stateMutability": "view",
      "type": "function"
    },
    {
      "inputs": [
        {
          "internalType": "uint256",
          "name": "",
          "type": "uint256"
        }
      ],
      "name": "games",
      "outputs": [
        {
          "internalType": "address",
          "name": "p1",
          "type": "address"
        },
        {
          "internalType": "address",
          "name": "p2",
          "type": "address"
        },
        {
          "internalType": "uint256",
          "name": "p1fate",
          "type": "uint256"
        },
        {
          "internalType": "uint256",
          "name": "p2fate",
          "type": "uint256"
        }
      ],
      "stateMutability": "view",
      "type": "function"
    },
    {
      "inputs": [
        {
          "internalType": "uint256",
          "name": "gameId",
          "type": "uint256"
        }
      ],
      "name": "getGame",
      "outputs": [
        {
          "internalType": "string",
          "name": "",
          "type": "string"
        }
      ],
      "stateMutability": "view",
      "type": "function"
    },
    {
      "inputs": [
        {
          "internalType": "address",
          "name": "account",
          "type": "address"
        }
      ],
      "name": "toString",
      "outputs": [
        {
          "internalType": "string",
          "name": "",
          "type": "string"
        }
      ],
      "stateMutability": "pure",
      "type": "function"
    },
    {
      "inputs": [
        {
          "internalType": "bytes",
          "name": "data",
          "type": "bytes"
        }
      ],
      "name": "toString",
      "outputs": [
        {
          "internalType": "string",
          "name": "",
          "type": "string"
        }
      ],
      "stateMutability": "pure",
      "type": "function"
    }
  ],
  "bytecode": "0x608060405234801561001057600080fd5b50611391806100206000396000f3fe608060405234801561001057600080fd5b50600436106100625760003560e01c8063117a5b90146100675780634d1975b41461009a57806356ca623e146100b857806371aad10d146100e8578063907b6ba314610118578063a2f77bcc14610134575b600080fd5b610081600480360381019061007c9190610ca7565b610164565b6040516100919493929190610ed8565b60405180910390f35b6100a26101d4565b6040516100af9190610f3f565b60405180910390f35b6100d260048036038101906100cd9190610c01565b6101da565b6040516100df9190610f1d565b60405180910390f35b61010260048036038101906100fd9190610c66565b61020b565b60405161010f9190610f1d565b60405180910390f35b610132600480360381019061012d9190610c2a565b61065b565b005b61014e60048036038101906101499190610ca7565b610834565b60405161015b9190610f1d565b60405180910390f35b60016020528060005260406000206000915090508060000160009054906101000a900473ffffffffffffffffffffffffffffffffffffffff16908060010160009054906101000a900473ffffffffffffffffffffffffffffffffffffffff16908060020154908060030154905084565b60005481565b6060610204826040516020016101f09190610e12565b60405160208183030381529060405261020b565b9050919050565b606060006040518060400160405280601081526020017f30313233343536373839616263646566000000000000000000000000000000008152509050600060028451610257919061102d565b60026102639190610fd7565b67ffffffffffffffff8111156102a2577f4e487b7100000000000000000000000000000000000000000000000000000000600052604160045260246000fd5b6040519080825280601f01601f1916602001820160405280156102d45781602001600182028036833780820191505090505b5090507f300000000000000000000000000000000000000000000000000000000000000081600081518110610332577f4e487b7100000000000000000000000000000000000000000000000000000000600052603260045260246000fd5b60200101907effffffffffffffffffffffffffffffffffffffffffffffffffffffffffffff1916908160001a9053507f7800000000000000000000000000000000000000000000000000000000000000816001815181106103bc577f4e487b7100000000000000000000000000000000000000000000000000000000600052603260045260246000fd5b60200101907effffffffffffffffffffffffffffffffffffffffffffffffffffffffffffff1916908160001a90535060005b845181101561065057826004868381518110610433577f4e487b7100000000000000000000000000000000000000000000000000000000600052603260045260246000fd5b602001015160f81c60f81b7effffffffffffffffffffffffffffffffffffffffffffffffffffffffffffff1916901c60f81c60ff168151811061049f577f4e487b7100000000000000000000000000000000000000000000000000000000600052603260045260246000fd5b602001015160f81c60f81b826002836104b8919061102d565b60026104c49190610fd7565b815181106104fb577f4e487b7100000000000000000000000000000000000000000000000000000000600052603260045260246000fd5b60200101907effffffffffffffffffffffffffffffffffffffffffffffffffffffffffffff1916908160001a90535082600f60f81b868381518110610569577f4e487b7100000000000000000000000000000000000000000000000000000000600052603260045260246000fd5b602001015160f81c60f81b1660f81c60ff16815181106105b2577f4e487b7100000000000000000000000000000000000000000000000000000000600052603260045260246000fd5b602001015160f81c60f81b826002836105cb919061102d565b60036105d79190610fd7565b8151811061060e577f4e487b7100000000000000000000000000000000000000000000000000000000600052603260045260246000fd5b60200101907effffffffffffffffffffffffffffffffffffffffffffffffffffffffffffff1916908160001a905350808061064890611136565b9150506103ee565b508092505050919050565b610663610b1b565b82816000019073ffffffffffffffffffffffffffffffffffffffff16908173ffffffffffffffffffffffffffffffffffffffff168152505081816020019073ffffffffffffffffffffffffffffffffffffffff16908173ffffffffffffffffffffffffffffffffffffffff168152505060036000548444426040516020016106ee9493929190610e8a565b6040516020818303038152906040528051906020012060001c61071191906111ad565b81604001818152505060036000548344426040516020016107359493929190610e8a565b6040516020818303038152906040528051906020012060001c61075891906111ad565b816060018181525050806001600080600081548092919061077890611136565b91905055815260200190815260200160002060008201518160000160006101000a81548173ffffffffffffffffffffffffffffffffffffffff021916908373ffffffffffffffffffffffffffffffffffffffff16021790555060208201518160010160006101000a81548173ffffffffffffffffffffffffffffffffffffffff021916908373ffffffffffffffffffffffffffffffffffffffff1602179055506040820151816002015560608201518160030155905050505050565b60606000600160008481526020019081526020016000206040518060800160405290816000820160009054906101000a900473ffffffffffffffffffffffffffffffffffffffff1673ffffffffffffffffffffffffffffffffffffffff1673ffffffffffffffffffffffffffffffffffffffff1681526020016001820160009054906101000a900473ffffffffffffffffffffffffffffffffffffffff1673ffffffffffffffffffffffffffffffffffffffff1673ffffffffffffffffffffffffffffffffffffffff168152602001600282015481526020016003820154815250509050606060008260400151148015610932575060028260600151145b80610951575060018260400151148015610950575060008260600151145b5b8061097057506002826040015114801561096f575060018260600151145b5b156109ae576040518060400160405280600d81526020017f506c6179657220312057696e730000000000000000000000000000000000000081525090505b600082606001511480156109c6575060028260400151145b806109e55750600182606001511480156109e4575060008260400151145b5b80610a04575060028260600151148015610a03575060018260400151145b5b15610a42576040518060400160405280600d81526020017f506c6179657220322057696e730000000000000000000000000000000000000081525090505b60008260600151148015610a5a575060008260400151145b80610a79575060018260600151148015610a78575060018260400151145b5b80610a98575060028260600151148015610a97575060028260400151145b5b15610ad6576040518060400160405280600481526020017f447261770000000000000000000000000000000000000000000000000000000081525090505b610ae382600001516101da565b610af083602001516101da565b82604051602001610b0393929190610e2d565b60405160208183030381529060405292505050919050565b6040518060800160405280600073ffffffffffffffffffffffffffffffffffffffff168152602001600073ffffffffffffffffffffffffffffffffffffffff16815260200160008152602001600081525090565b6000610b82610b7d84610f7f565b610f5a565b905082815260208101848484011115610b9a57600080fd5b610ba58482856110c3565b509392505050565b600081359050610bbc8161132d565b92915050565b600082601f830112610bd357600080fd5b8135610be3848260208601610b6f565b91505092915050565b600081359050610bfb81611344565b92915050565b600060208284031215610c1357600080fd5b6000610c2184828501610bad565b91505092915050565b60008060408385031215610c3d57600080fd5b6000610c4b85828601610bad565b9250506020610c5c85828601610bad565b9150509250929050565b600060208284031215610c7857600080fd5b600082013567ffffffffffffffff811115610c9257600080fd5b610c9e84828501610bc2565b91505092915050565b600060208284031215610cb957600080fd5b6000610cc784828501610bec565b91505092915050565b610cd981611087565b82525050565b610cf0610ceb82611087565b61117f565b82525050565b6000610d0182610fb0565b610d0b8185610fbb565b9350610d1b8185602086016110d2565b610d248161126b565b840191505092915050565b6000610d3a82610fb0565b610d448185610fcc565b9350610d548185602086016110d2565b80840191505092915050565b6000610d6d600c83610fcc565b9150610d7882611289565b600c82019050919050565b6000610d90600283610fcc565b9150610d9b826112b2565b600282019050919050565b6000610db3600d83610fcc565b9150610dbe826112db565b600d82019050919050565b6000610dd6600c83610fcc565b9150610de182611304565b600c82019050919050565b610df5816110b9565b82525050565b610e0c610e07826110b9565b6111a3565b82525050565b6000610e1e8284610cdf565b60148201915081905092915050565b6000610e3882610dc9565b9150610e448286610d2f565b9150610e4f82610da6565b9150610e5b8285610d2f565b9150610e6682610d60565b9150610e728284610d2f565b9150610e7d82610d83565b9150819050949350505050565b6000610e968287610dfb565b602082019150610ea68286610cdf565b601482019150610eb68285610dfb565b602082019150610ec68284610dfb565b60208201915081905095945050505050565b6000608082019050610eed6000830187610cd0565b610efa6020830186610cd0565b610f076040830185610dec565b610f146060830184610dec565b95945050505050565b60006020820190508181036000830152610f378184610cf6565b905092915050565b6000602082019050610f546000830184610dec565b92915050565b6000610f64610f75565b9050610f708282611105565b919050565b6000604051905090565b600067ffffffffffffffff821115610f9a57610f9961123c565b5b610fa38261126b565b9050602081019050919050565b600081519050919050565b600082825260208201905092915050565b600081905092915050565b6000610fe2826110b9565b9150610fed836110b9565b9250827fffffffffffffffffffffffffffffffffffffffffffffffffffffffffffffffff03821115611022576110216111de565b5b828201905092915050565b6000611038826110b9565b9150611043836110b9565b9250817fffffffffffffffffffffffffffffffffffffffffffffffffffffffffffffffff048311821515161561107c5761107b6111de565b5b828202905092915050565b600061109282611099565b9050919050565b600073ffffffffffffffffffffffffffffffffffffffff82169050919050565b6000819050919050565b82818337600083830152505050565b60005b838110156110f05780820151818401526020810190506110d5565b838111156110ff576000848401525b50505050565b61110e8261126b565b810181811067ffffffffffffffff8211171561112d5761112c61123c565b5b80604052505050565b6000611141826110b9565b91507fffffffffffffffffffffffffffffffffffffffffffffffffffffffffffffffff821415611174576111736111de565b5b600182019050919050565b600061118a82611191565b9050919050565b600061119c8261127c565b9050919050565b6000819050919050565b60006111b8826110b9565b91506111c3836110b9565b9250826111d3576111d261120d565b5b828206905092915050565b7f4e487b7100000000000000000000000000000000000000000000000000000000600052601160045260246000fd5b7f4e487b7100000000000000000000000000000000000000000000000000000000600052601260045260246000fd5b7f4e487b7100000000000000000000000000000000000000000000000000000000600052604160045260246000fd5b6000601f19601f8301169050919050565b60008160601b9050919050565b7f222c22726573756c74223a220000000000000000000000000000000000000000600082015250565b7f227d000000000000000000000000000000000000000000000000000000000000600082015250565b7f222c22706c6179657232223a2200000000000000000000000000000000000000600082015250565b7f7b22706c6179657231223a220000000000000000000000000000000000000000600082015250565b61133681611087565b811461134157600080fd5b50565b61134d816110b9565b811461135857600080fd5b5056fea2646970667358221220c499b2d66916736f39f6850469ee472ec8a9d43f3d56d031bf2ffd7f69e1b56a64736f6c63430008040033",
  "linkReferences": {},
  "deployedLinkReferences": {}
}